{
  "contracts/Betallica.sol": {
    "Betallica": {
      "abi": [
        {
          "inputs": [
            {
              "internalType": "bytes32",
              "name": "_choiceHash",
              "type": "bytes32"
            }
          ],
          "stateMutability": "nonpayable",
          "type": "constructor"
        },
        {
          "inputs": [
            {
              "internalType": "address",
              "name": "owner",
              "type": "address"
            }
          ],
          "name": "OwnableInvalidOwner",
          "type": "error"
        },
        {
          "inputs": [
            {
              "internalType": "address",
              "name": "account",
              "type": "address"
            }
          ],
          "name": "OwnableUnauthorizedAccount",
          "type": "error"
        },
        {
          "anonymous": false,
          "inputs": [
            {
              "indexed": false,
              "internalType": "bytes32",
              "name": "hash",
              "type": "bytes32"
            }
          ],
          "name": "ChoiceInitialized",
          "type": "event"
        },
        {
          "anonymous": false,
          "inputs": [
            {
              "indexed": false,
              "internalType": "string",
              "name": "choice",
              "type": "string"
            }
          ],
          "name": "ChoiceRevealed",
          "type": "event"
        },
        {
          "anonymous": false,
          "inputs": [
            {
              "indexed": true,
              "internalType": "address",
              "name": "previousOwner",
              "type": "address"
            },
            {
              "indexed": true,
              "internalType": "address",
              "name": "newOwner",
              "type": "address"
            }
          ],
          "name": "OwnershipTransferred",
          "type": "event"
        },
        {
          "inputs": [],
          "name": "closeReveal",
          "outputs": [],
          "stateMutability": "nonpayable",
          "type": "function"
        },
        {
          "inputs": [],
          "name": "owner",
          "outputs": [
            {
              "internalType": "address",
              "name": "",
              "type": "address"
            }
          ],
          "stateMutability": "view",
          "type": "function"
        },
        {
          "inputs": [
            {
              "internalType": "bytes32",
              "name": "_choiceHash",
              "type": "bytes32"
            }
          ],
          "name": "placeBet",
          "outputs": [],
          "stateMutability": "payable",
          "type": "function"
        },
        {
          "inputs": [],
          "name": "renounceOwnership",
          "outputs": [],
          "stateMutability": "nonpayable",
          "type": "function"
        },
        {
          "inputs": [
            {
              "internalType": "string",
              "name": "_choice",
              "type": "string"
            },
            {
              "internalType": "string",
              "name": "_salt",
              "type": "string"
            }
          ],
          "name": "revealBet",
          "outputs": [],
          "stateMutability": "nonpayable",
          "type": "function"
        },
        {
          "inputs": [
            {
              "internalType": "string",
              "name": "_choice",
              "type": "string"
            },
            {
              "internalType": "string",
              "name": "_salt",
              "type": "string"
            }
          ],
          "name": "revealChoice",
          "outputs": [],
          "stateMutability": "nonpayable",
          "type": "function"
        },
        {
          "inputs": [
            {
              "internalType": "address",
              "name": "newOwner",
              "type": "address"
            }
          ],
          "name": "transferOwnership",
          "outputs": [],
          "stateMutability": "nonpayable",
          "type": "function"
        },
        {
          "inputs": [],
          "name": "withdrawBets",
          "outputs": [],
          "stateMutability": "nonpayable",
          "type": "function"
        }
      ],
      "evm": {
        "bytecode": {
          "linkReferences": {},
          "object": "60806040523480156200001157600080fd5b5060405162001a4438038062001a44833981810160405281019062000037919062000278565b33600073ffffffffffffffffffffffffffffffffffffffff168173ffffffffffffffffffffffffffffffffffffffff1603620000ad5760006040517f1e4fbdf7000000000000000000000000000000000000000000000000000000008152600401620000a49190620002ef565b60405180910390fd5b620000be816200017460201b60201c565b50806004819055506000600560006101000a81548160ff02191690836002811115620000ef57620000ee6200030c565b5b02179055506000600560016101000a81548160ff021916908360028111156200011d576200011c6200030c565b5b0217905550600060028190555060006003819055507f1fb61596626cbb236282c1dcc49103aad071cc92d19fb754f5ff99949bea412c6004546040516200016591906200034c565b60405180910390a15062000369565b60008060009054906101000a900473ffffffffffffffffffffffffffffffffffffffff169050816000806101000a81548173ffffffffffffffffffffffffffffffffffffffff021916908373ffffffffffffffffffffffffffffffffffffffff1602179055508173ffffffffffffffffffffffffffffffffffffffff168173ffffffffffffffffffffffffffffffffffffffff167f8be0079c531659141344cd1fd0a4f28419497f9722a3daafe3b4186f6b6457e060405160405180910390a35050565b600080fd5b6000819050919050565b62000252816200023d565b81146200025e57600080fd5b50565b600081519050620002728162000247565b92915050565b60006020828403121562000291576200029062000238565b5b6000620002a18482850162000261565b91505092915050565b600073ffffffffffffffffffffffffffffffffffffffff82169050919050565b6000620002d782620002aa565b9050919050565b620002e981620002ca565b82525050565b6000602082019050620003066000830184620002de565b92915050565b7f4e487b7100000000000000000000000000000000000000000000000000000000600052602160045260246000fd5b62000346816200023d565b82525050565b60006020820190506200036360008301846200033b565b92915050565b6116cb80620003796000396000f3fe60806040526004361061007b5760003560e01c80638da5cb5b1161004e5780638da5cb5b146100f3578063ca48fd421461011e578063ecaf697814610135578063f2fde38b1461015e5761007b565b8063042b5fed146100805780634e4ff0791461009c5780635441effc146100b3578063715018a6146100dc575b600080fd5b61009a60048036038101906100959190610f4b565b610187565b005b3480156100a857600080fd5b506100b16102cf565b005b3480156100bf57600080fd5b506100da60048036038101906100d591906110be565b6104dc565b005b3480156100e857600080fd5b506100f16107b0565b005b3480156100ff57600080fd5b506101086107c4565b6040516101159190611177565b60405180910390f35b34801561012a57600080fd5b506101336107ed565b005b34801561014157600080fd5b5061015c600480360381019061015791906110be565b6108d8565b005b34801561016a57600080fd5b50610185600480360381019061018091906111be565b610c3a565b005b600080600281111561019c5761019b6111eb565b5b600560019054906101000a900460ff1660028111156101be576101bd6111eb565b5b146101fe576040517f08c379a00000000000000000000000000000000000000000000000000000000081526004016101f590611277565b60405180910390fd5b604051806060016040528083815260200134815260200160006002811115610229576102286111eb565b5b815250600160003373ffffffffffffffffffffffffffffffffffffffff1673ffffffffffffffffffffffffffffffffffffffff168152602001908152602001600020600082015181600001556020820151816001015560408201518160020160006101000a81548160ff021916908360028111156102aa576102a96111eb565b5b021790555090505034600260008282546102c491906112d0565b925050819055505050565b60028060028111156102e4576102e36111eb565b5b600560019054906101000a900460ff166002811115610306576103056111eb565b5b14610346576040517f08c379a000000000000000000000000000000000000000000000000000000000815260040161033d90611277565b60405180910390fd5b600560009054906101000a900460ff166002811115610368576103676111eb565b5b600160003373ffffffffffffffffffffffffffffffffffffffff1673ffffffffffffffffffffffffffffffffffffffff16815260200190815260200160002060020160009054906101000a900460ff1660028111156103ca576103c96111eb565b5b1461040a576040517f08c379a000000000000000000000000000000000000000000000000000000000815260040161040190611350565b60405180910390fd5b600060035460025461041c919061139f565b600160003373ffffffffffffffffffffffffffffffffffffffff1673ffffffffffffffffffffffffffffffffffffffff1681526020019081526020016000206001015461046991906112d0565b90503373ffffffffffffffffffffffffffffffffffffffff16610fa08260405161049290611401565b600060405180830381858888f193505050503d80600081146104d0576040519150601f19603f3d011682016040523d82523d6000602084013e6104d5565b606091505b5050505050565b6104e4610cc0565b60008060028111156104f9576104f86111eb565b5b600560019054906101000a900460ff16600281111561051b5761051a6111eb565b5b1461055b576040517f08c379a000000000000000000000000000000000000000000000000000000000815260040161055290611277565b60405180910390fd5b61056483610d47565b826004546000600281111561057c5761057b6111eb565b5b83600281111561058f5761058e6111eb565b5b036105cf576040517f08c379a00000000000000000000000000000000000000000000000000000000081526004016105c690611462565b60405180910390fd5b80600160028111156105e4576105e36111eb565b5b8460028111156105f7576105f66111eb565b5b14610637576040518060400160405280600481526020017f5461696c0000000000000000000000000000000000000000000000000000000081525061066e565b6040518060400160405280600481526020017f48656164000000000000000000000000000000000000000000000000000000008152505b836040516020016106809291906114f3565b60405160208183030381529060405280519060200120146106d6576040517f08c379a00000000000000000000000000000000000000000000000000000000081526004016106cd90611563565b60405180910390fd5b6106df86610d47565b600560006101000a81548160ff02191690836002811115610703576107026111eb565b5b02179055507f39f4c57d73336a6a4f866f3475e76f4978ec601a70fa795515a9c862752f2ea78660405161073791906115bc565b60405180910390a16001600560019054906101000a900460ff166002811115610763576107626111eb565b5b61076d91906112d0565b600281111561077f5761077e6111eb565b5b600560016101000a81548160ff021916908360028111156107a3576107a26111eb565b5b0217905550505050505050565b6107b8610cc0565b6107c26000610e35565b565b60008060009054906101000a900473ffffffffffffffffffffffffffffffffffffffff16905090565b6107f5610cc0565b600180600281111561080a576108096111eb565b5b600560019054906101000a900460ff16600281111561082c5761082b6111eb565b5b1461086c576040517f08c379a000000000000000000000000000000000000000000000000000000000815260040161086390611277565b60405180910390fd5b6001600560019054906101000a900460ff1660028111156108905761088f6111eb565b5b61089a91906112d0565b60028111156108ac576108ab6111eb565b5b600560016101000a81548160ff021916908360028111156108d0576108cf6111eb565b5b021790555050565b60018060028111156108ed576108ec6111eb565b5b600560019054906101000a900460ff16600281111561090f5761090e6111eb565b5b1461094f576040517f08c379a000000000000000000000000000000000000000000000000000000000815260040161094690611277565b60405180910390fd5b61095883610d47565b82600160003373ffffffffffffffffffffffffffffffffffffffff1673ffffffffffffffffffffffffffffffffffffffff16815260200190815260200160002060000154600060028111156109b0576109af6111eb565b5b8360028111156109c3576109c26111eb565b5b03610a03576040517f08c379a00000000000000000000000000000000000000000000000000000000081526004016109fa90611462565b60405180910390fd5b8060016002811115610a1857610a176111eb565b5b846002811115610a2b57610a2a6111eb565b5b14610a6b576040518060400160405280600481526020017f5461696c00000000000000000000000000000000000000000000000000000000815250610aa2565b6040518060400160405280600481526020017f48656164000000000000000000000000000000000000000000000000000000008152505b83604051602001610ab49291906114f3565b6040516020818303038152906040528051906020012014610b0a576040517f08c379a0000000000000000000000000000000000000000000000000000000008152600401610b0190611563565b60405180910390fd5b6000610b1587610d47565b905080600160003373ffffffffffffffffffffffffffffffffffffffff1673ffffffffffffffffffffffffffffffffffffffff16815260200190815260200160002060020160006101000a81548160ff02191690836002811115610b7c57610b7b6111eb565b5b0217905550600560009054906101000a900460ff166002811115610ba357610ba26111eb565b5b816002811115610bb657610bb56111eb565b5b03610c3157600160003373ffffffffffffffffffffffffffffffffffffffff1673ffffffffffffffffffffffffffffffffffffffff1681526020019081526020016000206001015460026000828254610c0f91906115de565b92505081905550600160036000828254610c2991906112d0565b925050819055505b50505050505050565b610c42610cc0565b600073ffffffffffffffffffffffffffffffffffffffff168173ffffffffffffffffffffffffffffffffffffffff1603610cb45760006040517f1e4fbdf7000000000000000000000000000000000000000000000000000000008152600401610cab9190611177565b60405180910390fd5b610cbd81610e35565b50565b610cc8610ef9565b73ffffffffffffffffffffffffffffffffffffffff16610ce66107c4565b73ffffffffffffffffffffffffffffffffffffffff1614610d4557610d09610ef9565b6040517f118cdaa7000000000000000000000000000000000000000000000000000000008152600401610d3c9190611177565b60405180910390fd5b565b60007f486561640000000000000000000000000000000000000000000000000000000082604051602001610d7b9190611612565b6040516020818303038152906040528051906020012003610d9f5760019050610e30565b7f5461696c0000000000000000000000000000000000000000000000000000000082604051602001610dd19190611612565b6040516020818303038152906040528051906020012003610df55760029050610e30565b6040517f08c379a0000000000000000000000000000000000000000000000000000000008152600401610e2790611675565b60405180910390fd5b919050565b60008060009054906101000a900473ffffffffffffffffffffffffffffffffffffffff169050816000806101000a81548173ffffffffffffffffffffffffffffffffffffffff021916908373ffffffffffffffffffffffffffffffffffffffff1602179055508173ffffffffffffffffffffffffffffffffffffffff168173ffffffffffffffffffffffffffffffffffffffff167f8be0079c531659141344cd1fd0a4f28419497f9722a3daafe3b4186f6b6457e060405160405180910390a35050565b600033905090565b6000604051905090565b600080fd5b600080fd5b6000819050919050565b610f2881610f15565b8114610f3357600080fd5b50565b600081359050610f4581610f1f565b92915050565b600060208284031215610f6157610f60610f0b565b5b6000610f6f84828501610f36565b91505092915050565b600080fd5b600080fd5b6000601f19601f8301169050919050565b7f4e487b7100000000000000000000000000000000000000000000000000000000600052604160045260246000fd5b610fcb82610f82565b810181811067ffffffffffffffff82111715610fea57610fe9610f93565b5b80604052505050565b6000610ffd610f01565b90506110098282610fc2565b919050565b600067ffffffffffffffff82111561102957611028610f93565b5b61103282610f82565b9050602081019050919050565b82818337600083830152505050565b600061106161105c8461100e565b610ff3565b90508281526020810184848401111561107d5761107c610f7d565b5b61108884828561103f565b509392505050565b600082601f8301126110a5576110a4610f78565b5b81356110b584826020860161104e565b91505092915050565b600080604083850312156110d5576110d4610f0b565b5b600083013567ffffffffffffffff8111156110f3576110f2610f10565b5b6110ff85828601611090565b925050602083013567ffffffffffffffff8111156111205761111f610f10565b5b61112c85828601611090565b9150509250929050565b600073ffffffffffffffffffffffffffffffffffffffff82169050919050565b600061116182611136565b9050919050565b61117181611156565b82525050565b600060208201905061118c6000830184611168565b92915050565b61119b81611156565b81146111a657600080fd5b50565b6000813590506111b881611192565b92915050565b6000602082840312156111d4576111d3610f0b565b5b60006111e2848285016111a9565b91505092915050565b7f4e487b7100000000000000000000000000000000000000000000000000000000600052602160045260246000fd5b600082825260208201905092915050565b7f57726f6e67207374616765000000000000000000000000000000000000000000600082015250565b6000611261600b8361121a565b915061126c8261122b565b602082019050919050565b6000602082019050818103600083015261129081611254565b9050919050565b6000819050919050565b7f4e487b7100000000000000000000000000000000000000000000000000000000600052601160045260246000fd5b60006112db82611297565b91506112e683611297565b92508282019050808211156112fe576112fd6112a1565b5b92915050565b7f596f7520617265206c6f73696e67207468652062657400000000000000000000600082015250565b600061133a60168361121a565b915061134582611304565b602082019050919050565b600060208201905081810360008301526113698161132d565b9050919050565b7f4e487b7100000000000000000000000000000000000000000000000000000000600052601260045260246000fd5b60006113aa82611297565b91506113b583611297565b9250826113c5576113c4611370565b5b828204905092915050565b600081905092915050565b50565b60006113eb6000836113d0565b91506113f6826113db565b600082019050919050565b600061140c826113de565b9150819050919050565b7f43686f696365206d757374206265207365740000000000000000000000000000600082015250565b600061144c60128361121a565b915061145782611416565b602082019050919050565b6000602082019050818103600083015261147b8161143f565b9050919050565b600081519050919050565b600081905092915050565b60005b838110156114b657808201518184015260208101905061149b565b60008484015250505050565b60006114cd82611482565b6114d7818561148d565b93506114e7818560208601611498565b80840191505092915050565b60006114ff82856114c2565b915061150b82846114c2565b91508190509392505050565b7f57726f6e67206861736800000000000000000000000000000000000000000000600082015250565b600061154d600a8361121a565b915061155882611517565b602082019050919050565b6000602082019050818103600083015261157c81611540565b9050919050565b600061158e82611482565b611598818561121a565b93506115a8818560208601611498565b6115b181610f82565b840191505092915050565b600060208201905081810360008301526115d68184611583565b905092915050565b60006115e982611297565b91506115f483611297565b925082820390508181111561160c5761160b6112a1565b5b92915050565b600061161e82846114c2565b915081905092915050565b7f43616e6e6f742064657465726d696e652063686f696365000000000000000000600082015250565b600061165f60178361121a565b915061166a82611629565b602082019050919050565b6000602082019050818103600083015261168e81611652565b905091905056fea26469706673582212200733a3521a6f66a372b22cccb205469997ff0a5625973c697418ea6f2c94cd1164736f6c63430008180033",
          "opcodes": "PUSH1 0x80 PUSH1 0x40 MSTORE CALLVALUE DUP1 ISZERO PUSH3 0x11 JUMPI PUSH1 0x0 DUP1 REVERT JUMPDEST POP PUSH1 0x40 MLOAD PUSH3 0x1A44 CODESIZE SUB DUP1 PUSH3 0x1A44 DUP4 CODECOPY DUP2 DUP2 ADD PUSH1 0x40 MSTORE DUP2 ADD SWAP1 PUSH3 0x37 SWAP2 SWAP1 PUSH3 0x278 JUMP JUMPDEST CALLER PUSH1 0x0 PUSH20 0xFFFFFFFFFFFFFFFFFFFFFFFFFFFFFFFFFFFFFFFF AND DUP2 PUSH20 0xFFFFFFFFFFFFFFFFFFFFFFFFFFFFFFFFFFFFFFFF AND SUB PUSH3 0xAD JUMPI PUSH1 0x0 PUSH1 0x40 MLOAD PUSH32 0x1E4FBDF700000000000000000000000000000000000000000000000000000000 DUP2 MSTORE PUSH1 0x4 ADD PUSH3 0xA4 SWAP2 SWAP1 PUSH3 0x2EF JUMP JUMPDEST PUSH1 0x40 MLOAD DUP1 SWAP2 SUB SWAP1 REVERT JUMPDEST PUSH3 0xBE DUP2 PUSH3 0x174 PUSH1 0x20 SHL PUSH1 0x20 SHR JUMP JUMPDEST POP DUP1 PUSH1 0x4 DUP2 SWAP1 SSTORE POP PUSH1 0x0 PUSH1 0x5 PUSH1 0x0 PUSH2 0x100 EXP DUP2 SLOAD DUP2 PUSH1 0xFF MUL NOT AND SWAP1 DUP4 PUSH1 0x2 DUP2 GT ISZERO PUSH3 0xEF JUMPI PUSH3 0xEE PUSH3 0x30C JUMP JUMPDEST JUMPDEST MUL OR SWAP1 SSTORE POP PUSH1 0x0 PUSH1 0x5 PUSH1 0x1 PUSH2 0x100 EXP DUP2 SLOAD DUP2 PUSH1 0xFF MUL NOT AND SWAP1 DUP4 PUSH1 0x2 DUP2 GT ISZERO PUSH3 0x11D JUMPI PUSH3 0x11C PUSH3 0x30C JUMP JUMPDEST JUMPDEST MUL OR SWAP1 SSTORE POP PUSH1 0x0 PUSH1 0x2 DUP2 SWAP1 SSTORE POP PUSH1 0x0 PUSH1 0x3 DUP2 SWAP1 SSTORE POP PUSH32 0x1FB61596626CBB236282C1DCC49103AAD071CC92D19FB754F5FF99949BEA412C PUSH1 0x4 SLOAD PUSH1 0x40 MLOAD PUSH3 0x165 SWAP2 SWAP1 PUSH3 0x34C JUMP JUMPDEST PUSH1 0x40 MLOAD DUP1 SWAP2 SUB SWAP1 LOG1 POP PUSH3 0x369 JUMP JUMPDEST PUSH1 0x0 DUP1 PUSH1 0x0 SWAP1 SLOAD SWAP1 PUSH2 0x100 EXP SWAP1 DIV PUSH20 0xFFFFFFFFFFFFFFFFFFFFFFFFFFFFFFFFFFFFFFFF AND SWAP1 POP DUP2 PUSH1 0x0 DUP1 PUSH2 0x100 EXP DUP2 SLOAD DUP2 PUSH20 0xFFFFFFFFFFFFFFFFFFFFFFFFFFFFFFFFFFFFFFFF MUL NOT AND SWAP1 DUP4 PUSH20 0xFFFFFFFFFFFFFFFFFFFFFFFFFFFFFFFFFFFFFFFF AND MUL OR SWAP1 SSTORE POP DUP2 PUSH20 0xFFFFFFFFFFFFFFFFFFFFFFFFFFFFFFFFFFFFFFFF AND DUP2 PUSH20 0xFFFFFFFFFFFFFFFFFFFFFFFFFFFFFFFFFFFFFFFF AND PUSH32 0x8BE0079C531659141344CD1FD0A4F28419497F9722A3DAAFE3B4186F6B6457E0 PUSH1 0x40 MLOAD PUSH1 0x40 MLOAD DUP1 SWAP2 SUB SWAP1 LOG3 POP POP JUMP JUMPDEST PUSH1 0x0 DUP1 REVERT JUMPDEST PUSH1 0x0 DUP2 SWAP1 POP SWAP2 SWAP1 POP JUMP JUMPDEST PUSH3 0x252 DUP2 PUSH3 0x23D JUMP JUMPDEST DUP2 EQ PUSH3 0x25E JUMPI PUSH1 0x0 DUP1 REVERT JUMPDEST POP JUMP JUMPDEST PUSH1 0x0 DUP2 MLOAD SWAP1 POP PUSH3 0x272 DUP2 PUSH3 0x247 JUMP JUMPDEST SWAP3 SWAP2 POP POP JUMP JUMPDEST PUSH1 0x0 PUSH1 0x20 DUP3 DUP5 SUB SLT ISZERO PUSH3 0x291 JUMPI PUSH3 0x290 PUSH3 0x238 JUMP JUMPDEST JUMPDEST PUSH1 0x0 PUSH3 0x2A1 DUP5 DUP3 DUP6 ADD PUSH3 0x261 JUMP JUMPDEST SWAP2 POP POP SWAP3 SWAP2 POP POP JUMP JUMPDEST PUSH1 0x0 PUSH20 0xFFFFFFFFFFFFFFFFFFFFFFFFFFFFFFFFFFFFFFFF DUP3 AND SWAP1 POP SWAP2 SWAP1 POP JUMP JUMPDEST PUSH1 0x0 PUSH3 0x2D7 DUP3 PUSH3 0x2AA JUMP JUMPDEST SWAP1 POP SWAP2 SWAP1 POP JUMP JUMPDEST PUSH3 0x2E9 DUP2 PUSH3 0x2CA JUMP JUMPDEST DUP3 MSTORE POP POP JUMP JUMPDEST PUSH1 0x0 PUSH1 0x20 DUP3 ADD SWAP1 POP PUSH3 0x306 PUSH1 0x0 DUP4 ADD DUP5 PUSH3 0x2DE JUMP JUMPDEST SWAP3 SWAP2 POP POP JUMP JUMPDEST PUSH32 0x4E487B7100000000000000000000000000000000000000000000000000000000 PUSH1 0x0 MSTORE PUSH1 0x21 PUSH1 0x4 MSTORE PUSH1 0x24 PUSH1 0x0 REVERT JUMPDEST PUSH3 0x346 DUP2 PUSH3 0x23D JUMP JUMPDEST DUP3 MSTORE POP POP JUMP JUMPDEST PUSH1 0x0 PUSH1 0x20 DUP3 ADD SWAP1 POP PUSH3 0x363 PUSH1 0x0 DUP4 ADD DUP5 PUSH3 0x33B JUMP JUMPDEST SWAP3 SWAP2 POP POP JUMP JUMPDEST PUSH2 0x16CB DUP1 PUSH3 0x379 PUSH1 0x0 CODECOPY PUSH1 0x0 RETURN INVALID PUSH1 0x80 PUSH1 0x40 MSTORE PUSH1 0x4 CALLDATASIZE LT PUSH2 0x7B JUMPI PUSH1 0x0 CALLDATALOAD PUSH1 0xE0 SHR DUP1 PUSH4 0x8DA5CB5B GT PUSH2 0x4E JUMPI DUP1 PUSH4 0x8DA5CB5B EQ PUSH2 0xF3 JUMPI DUP1 PUSH4 0xCA48FD42 EQ PUSH2 0x11E JUMPI DUP1 PUSH4 0xECAF6978 EQ PUSH2 0x135 JUMPI DUP1 PUSH4 0xF2FDE38B EQ PUSH2 0x15E JUMPI PUSH2 0x7B JUMP JUMPDEST DUP1 PUSH4 0x42B5FED EQ PUSH2 0x80 JUMPI DUP1 PUSH4 0x4E4FF079 EQ PUSH2 0x9C JUMPI DUP1 PUSH4 0x5441EFFC EQ PUSH2 0xB3 JUMPI DUP1 PUSH4 0x715018A6 EQ PUSH2 0xDC JUMPI JUMPDEST PUSH1 0x0 DUP1 REVERT JUMPDEST PUSH2 0x9A PUSH1 0x4 DUP1 CALLDATASIZE SUB DUP2 ADD SWAP1 PUSH2 0x95 SWAP2 SWAP1 PUSH2 0xF4B JUMP JUMPDEST PUSH2 0x187 JUMP JUMPDEST STOP JUMPDEST CALLVALUE DUP1 ISZERO PUSH2 0xA8 JUMPI PUSH1 0x0 DUP1 REVERT JUMPDEST POP PUSH2 0xB1 PUSH2 0x2CF JUMP JUMPDEST STOP JUMPDEST CALLVALUE DUP1 ISZERO PUSH2 0xBF JUMPI PUSH1 0x0 DUP1 REVERT JUMPDEST POP PUSH2 0xDA PUSH1 0x4 DUP1 CALLDATASIZE SUB DUP2 ADD SWAP1 PUSH2 0xD5 SWAP2 SWAP1 PUSH2 0x10BE JUMP JUMPDEST PUSH2 0x4DC JUMP JUMPDEST STOP JUMPDEST CALLVALUE DUP1 ISZERO PUSH2 0xE8 JUMPI PUSH1 0x0 DUP1 REVERT JUMPDEST POP PUSH2 0xF1 PUSH2 0x7B0 JUMP JUMPDEST STOP JUMPDEST CALLVALUE DUP1 ISZERO PUSH2 0xFF JUMPI PUSH1 0x0 DUP1 REVERT JUMPDEST POP PUSH2 0x108 PUSH2 0x7C4 JUMP JUMPDEST PUSH1 0x40 MLOAD PUSH2 0x115 SWAP2 SWAP1 PUSH2 0x1177 JUMP JUMPDEST PUSH1 0x40 MLOAD DUP1 SWAP2 SUB SWAP1 RETURN JUMPDEST CALLVALUE DUP1 ISZERO PUSH2 0x12A JUMPI PUSH1 0x0 DUP1 REVERT JUMPDEST POP PUSH2 0x133 PUSH2 0x7ED JUMP JUMPDEST STOP JUMPDEST CALLVALUE DUP1 ISZERO PUSH2 0x141 JUMPI PUSH1 0x0 DUP1 REVERT JUMPDEST POP PUSH2 0x15C PUSH1 0x4 DUP1 CALLDATASIZE SUB DUP2 ADD SWAP1 PUSH2 0x157 SWAP2 SWAP1 PUSH2 0x10BE JUMP JUMPDEST PUSH2 0x8D8 JUMP JUMPDEST STOP JUMPDEST CALLVALUE DUP1 ISZERO PUSH2 0x16A JUMPI PUSH1 0x0 DUP1 REVERT JUMPDEST POP PUSH2 0x185 PUSH1 0x4 DUP1 CALLDATASIZE SUB DUP2 ADD SWAP1 PUSH2 0x180 SWAP2 SWAP1 PUSH2 0x11BE JUMP JUMPDEST PUSH2 0xC3A JUMP JUMPDEST STOP JUMPDEST PUSH1 0x0 DUP1 PUSH1 0x2 DUP2 GT ISZERO PUSH2 0x19C JUMPI PUSH2 0x19B PUSH2 0x11EB JUMP JUMPDEST JUMPDEST PUSH1 0x5 PUSH1 0x1 SWAP1 SLOAD SWAP1 PUSH2 0x100 EXP SWAP1 DIV PUSH1 0xFF AND PUSH1 0x2 DUP2 GT ISZERO PUSH2 0x1BE JUMPI PUSH2 0x1BD PUSH2 0x11EB JUMP JUMPDEST JUMPDEST EQ PUSH2 0x1FE JUMPI PUSH1 0x40 MLOAD PUSH32 0x8C379A000000000000000000000000000000000000000000000000000000000 DUP2 MSTORE PUSH1 0x4 ADD PUSH2 0x1F5 SWAP1 PUSH2 0x1277 JUMP JUMPDEST PUSH1 0x40 MLOAD DUP1 SWAP2 SUB SWAP1 REVERT JUMPDEST PUSH1 0x40 MLOAD DUP1 PUSH1 0x60 ADD PUSH1 0x40 MSTORE DUP1 DUP4 DUP2 MSTORE PUSH1 0x20 ADD CALLVALUE DUP2 MSTORE PUSH1 0x20 ADD PUSH1 0x0 PUSH1 0x2 DUP2 GT ISZERO PUSH2 0x229 JUMPI PUSH2 0x228 PUSH2 0x11EB JUMP JUMPDEST JUMPDEST DUP2 MSTORE POP PUSH1 0x1 PUSH1 0x0 CALLER PUSH20 0xFFFFFFFFFFFFFFFFFFFFFFFFFFFFFFFFFFFFFFFF AND PUSH20 0xFFFFFFFFFFFFFFFFFFFFFFFFFFFFFFFFFFFFFFFF AND DUP2 MSTORE PUSH1 0x20 ADD SWAP1 DUP2 MSTORE PUSH1 0x20 ADD PUSH1 0x0 KECCAK256 PUSH1 0x0 DUP3 ADD MLOAD DUP2 PUSH1 0x0 ADD SSTORE PUSH1 0x20 DUP3 ADD MLOAD DUP2 PUSH1 0x1 ADD SSTORE PUSH1 0x40 DUP3 ADD MLOAD DUP2 PUSH1 0x2 ADD PUSH1 0x0 PUSH2 0x100 EXP DUP2 SLOAD DUP2 PUSH1 0xFF MUL NOT AND SWAP1 DUP4 PUSH1 0x2 DUP2 GT ISZERO PUSH2 0x2AA JUMPI PUSH2 0x2A9 PUSH2 0x11EB JUMP JUMPDEST JUMPDEST MUL OR SWAP1 SSTORE POP SWAP1 POP POP CALLVALUE PUSH1 0x2 PUSH1 0x0 DUP3 DUP3 SLOAD PUSH2 0x2C4 SWAP2 SWAP1 PUSH2 0x12D0 JUMP JUMPDEST SWAP3 POP POP DUP2 SWAP1 SSTORE POP POP POP JUMP JUMPDEST PUSH1 0x2 DUP1 PUSH1 0x2 DUP2 GT ISZERO PUSH2 0x2E4 JUMPI PUSH2 0x2E3 PUSH2 0x11EB JUMP JUMPDEST JUMPDEST PUSH1 0x5 PUSH1 0x1 SWAP1 SLOAD SWAP1 PUSH2 0x100 EXP SWAP1 DIV PUSH1 0xFF AND PUSH1 0x2 DUP2 GT ISZERO PUSH2 0x306 JUMPI PUSH2 0x305 PUSH2 0x11EB JUMP JUMPDEST JUMPDEST EQ PUSH2 0x346 JUMPI PUSH1 0x40 MLOAD PUSH32 0x8C379A000000000000000000000000000000000000000000000000000000000 DUP2 MSTORE PUSH1 0x4 ADD PUSH2 0x33D SWAP1 PUSH2 0x1277 JUMP JUMPDEST PUSH1 0x40 MLOAD DUP1 SWAP2 SUB SWAP1 REVERT JUMPDEST PUSH1 0x5 PUSH1 0x0 SWAP1 SLOAD SWAP1 PUSH2 0x100 EXP SWAP1 DIV PUSH1 0xFF AND PUSH1 0x2 DUP2 GT ISZERO PUSH2 0x368 JUMPI PUSH2 0x367 PUSH2 0x11EB JUMP JUMPDEST JUMPDEST PUSH1 0x1 PUSH1 0x0 CALLER PUSH20 0xFFFFFFFFFFFFFFFFFFFFFFFFFFFFFFFFFFFFFFFF AND PUSH20 0xFFFFFFFFFFFFFFFFFFFFFFFFFFFFFFFFFFFFFFFF AND DUP2 MSTORE PUSH1 0x20 ADD SWAP1 DUP2 MSTORE PUSH1 0x20 ADD PUSH1 0x0 KECCAK256 PUSH1 0x2 ADD PUSH1 0x0 SWAP1 SLOAD SWAP1 PUSH2 0x100 EXP SWAP1 DIV PUSH1 0xFF AND PUSH1 0x2 DUP2 GT ISZERO PUSH2 0x3CA JUMPI PUSH2 0x3C9 PUSH2 0x11EB JUMP JUMPDEST JUMPDEST EQ PUSH2 0x40A JUMPI PUSH1 0x40 MLOAD PUSH32 0x8C379A000000000000000000000000000000000000000000000000000000000 DUP2 MSTORE PUSH1 0x4 ADD PUSH2 0x401 SWAP1 PUSH2 0x1350 JUMP JUMPDEST PUSH1 0x40 MLOAD DUP1 SWAP2 SUB SWAP1 REVERT JUMPDEST PUSH1 0x0 PUSH1 0x3 SLOAD PUSH1 0x2 SLOAD PUSH2 0x41C SWAP2 SWAP1 PUSH2 0x139F JUMP JUMPDEST PUSH1 0x1 PUSH1 0x0 CALLER PUSH20 0xFFFFFFFFFFFFFFFFFFFFFFFFFFFFFFFFFFFFFFFF AND PUSH20 0xFFFFFFFFFFFFFFFFFFFFFFFFFFFFFFFFFFFFFFFF AND DUP2 MSTORE PUSH1 0x20 ADD SWAP1 DUP2 MSTORE PUSH1 0x20 ADD PUSH1 0x0 KECCAK256 PUSH1 0x1 ADD SLOAD PUSH2 0x469 SWAP2 SWAP1 PUSH2 0x12D0 JUMP JUMPDEST SWAP1 POP CALLER PUSH20 0xFFFFFFFFFFFFFFFFFFFFFFFFFFFFFFFFFFFFFFFF AND PUSH2 0xFA0 DUP3 PUSH1 0x40 MLOAD PUSH2 0x492 SWAP1 PUSH2 0x1401 JUMP JUMPDEST PUSH1 0x0 PUSH1 0x40 MLOAD DUP1 DUP4 SUB DUP2 DUP6 DUP9 DUP9 CALL SWAP4 POP POP POP POP RETURNDATASIZE DUP1 PUSH1 0x0 DUP2 EQ PUSH2 0x4D0 JUMPI PUSH1 0x40 MLOAD SWAP2 POP PUSH1 0x1F NOT PUSH1 0x3F RETURNDATASIZE ADD AND DUP3 ADD PUSH1 0x40 MSTORE RETURNDATASIZE DUP3 MSTORE RETURNDATASIZE PUSH1 0x0 PUSH1 0x20 DUP5 ADD RETURNDATACOPY PUSH2 0x4D5 JUMP JUMPDEST PUSH1 0x60 SWAP2 POP JUMPDEST POP POP POP POP POP JUMP JUMPDEST PUSH2 0x4E4 PUSH2 0xCC0 JUMP JUMPDEST PUSH1 0x0 DUP1 PUSH1 0x2 DUP2 GT ISZERO PUSH2 0x4F9 JUMPI PUSH2 0x4F8 PUSH2 0x11EB JUMP JUMPDEST JUMPDEST PUSH1 0x5 PUSH1 0x1 SWAP1 SLOAD SWAP1 PUSH2 0x100 EXP SWAP1 DIV PUSH1 0xFF AND PUSH1 0x2 DUP2 GT ISZERO PUSH2 0x51B JUMPI PUSH2 0x51A PUSH2 0x11EB JUMP JUMPDEST JUMPDEST EQ PUSH2 0x55B JUMPI PUSH1 0x40 MLOAD PUSH32 0x8C379A000000000000000000000000000000000000000000000000000000000 DUP2 MSTORE PUSH1 0x4 ADD PUSH2 0x552 SWAP1 PUSH2 0x1277 JUMP JUMPDEST PUSH1 0x40 MLOAD DUP1 SWAP2 SUB SWAP1 REVERT JUMPDEST PUSH2 0x564 DUP4 PUSH2 0xD47 JUMP JUMPDEST DUP3 PUSH1 0x4 SLOAD PUSH1 0x0 PUSH1 0x2 DUP2 GT ISZERO PUSH2 0x57C JUMPI PUSH2 0x57B PUSH2 0x11EB JUMP JUMPDEST JUMPDEST DUP4 PUSH1 0x2 DUP2 GT ISZERO PUSH2 0x58F JUMPI PUSH2 0x58E PUSH2 0x11EB JUMP JUMPDEST JUMPDEST SUB PUSH2 0x5CF JUMPI PUSH1 0x40 MLOAD PUSH32 0x8C379A000000000000000000000000000000000000000000000000000000000 DUP2 MSTORE PUSH1 0x4 ADD PUSH2 0x5C6 SWAP1 PUSH2 0x1462 JUMP JUMPDEST PUSH1 0x40 MLOAD DUP1 SWAP2 SUB SWAP1 REVERT JUMPDEST DUP1 PUSH1 0x1 PUSH1 0x2 DUP2 GT ISZERO PUSH2 0x5E4 JUMPI PUSH2 0x5E3 PUSH2 0x11EB JUMP JUMPDEST JUMPDEST DUP5 PUSH1 0x2 DUP2 GT ISZERO PUSH2 0x5F7 JUMPI PUSH2 0x5F6 PUSH2 0x11EB JUMP JUMPDEST JUMPDEST EQ PUSH2 0x637 JUMPI PUSH1 0x40 MLOAD DUP1 PUSH1 0x40 ADD PUSH1 0x40 MSTORE DUP1 PUSH1 0x4 DUP2 MSTORE PUSH1 0x20 ADD PUSH32 0x5461696C00000000000000000000000000000000000000000000000000000000 DUP2 MSTORE POP PUSH2 0x66E JUMP JUMPDEST PUSH1 0x40 MLOAD DUP1 PUSH1 0x40 ADD PUSH1 0x40 MSTORE DUP1 PUSH1 0x4 DUP2 MSTORE PUSH1 0x20 ADD PUSH32 0x4865616400000000000000000000000000000000000000000000000000000000 DUP2 MSTORE POP JUMPDEST DUP4 PUSH1 0x40 MLOAD PUSH1 0x20 ADD PUSH2 0x680 SWAP3 SWAP2 SWAP1 PUSH2 0x14F3 JUMP JUMPDEST PUSH1 0x40 MLOAD PUSH1 0x20 DUP2 DUP4 SUB SUB DUP2 MSTORE SWAP1 PUSH1 0x40 MSTORE DUP1 MLOAD SWAP1 PUSH1 0x20 ADD KECCAK256 EQ PUSH2 0x6D6 JUMPI PUSH1 0x40 MLOAD PUSH32 0x8C379A000000000000000000000000000000000000000000000000000000000 DUP2 MSTORE PUSH1 0x4 ADD PUSH2 0x6CD SWAP1 PUSH2 0x1563 JUMP JUMPDEST PUSH1 0x40 MLOAD DUP1 SWAP2 SUB SWAP1 REVERT JUMPDEST PUSH2 0x6DF DUP7 PUSH2 0xD47 JUMP JUMPDEST PUSH1 0x5 PUSH1 0x0 PUSH2 0x100 EXP DUP2 SLOAD DUP2 PUSH1 0xFF MUL NOT AND SWAP1 DUP4 PUSH1 0x2 DUP2 GT ISZERO PUSH2 0x703 JUMPI PUSH2 0x702 PUSH2 0x11EB JUMP JUMPDEST JUMPDEST MUL OR SWAP1 SSTORE POP PUSH32 0x39F4C57D73336A6A4F866F3475E76F4978EC601A70FA795515A9C862752F2EA7 DUP7 PUSH1 0x40 MLOAD PUSH2 0x737 SWAP2 SWAP1 PUSH2 0x15BC JUMP JUMPDEST PUSH1 0x40 MLOAD DUP1 SWAP2 SUB SWAP1 LOG1 PUSH1 0x1 PUSH1 0x5 PUSH1 0x1 SWAP1 SLOAD SWAP1 PUSH2 0x100 EXP SWAP1 DIV PUSH1 0xFF AND PUSH1 0x2 DUP2 GT ISZERO PUSH2 0x763 JUMPI PUSH2 0x762 PUSH2 0x11EB JUMP JUMPDEST JUMPDEST PUSH2 0x76D SWAP2 SWAP1 PUSH2 0x12D0 JUMP JUMPDEST PUSH1 0x2 DUP2 GT ISZERO PUSH2 0x77F JUMPI PUSH2 0x77E PUSH2 0x11EB JUMP JUMPDEST JUMPDEST PUSH1 0x5 PUSH1 0x1 PUSH2 0x100 EXP DUP2 SLOAD DUP2 PUSH1 0xFF MUL NOT AND SWAP1 DUP4 PUSH1 0x2 DUP2 GT ISZERO PUSH2 0x7A3 JUMPI PUSH2 0x7A2 PUSH2 0x11EB JUMP JUMPDEST JUMPDEST MUL OR SWAP1 SSTORE POP POP POP POP POP POP POP JUMP JUMPDEST PUSH2 0x7B8 PUSH2 0xCC0 JUMP JUMPDEST PUSH2 0x7C2 PUSH1 0x0 PUSH2 0xE35 JUMP JUMPDEST JUMP JUMPDEST PUSH1 0x0 DUP1 PUSH1 0x0 SWAP1 SLOAD SWAP1 PUSH2 0x100 EXP SWAP1 DIV PUSH20 0xFFFFFFFFFFFFFFFFFFFFFFFFFFFFFFFFFFFFFFFF AND SWAP1 POP SWAP1 JUMP JUMPDEST PUSH2 0x7F5 PUSH2 0xCC0 JUMP JUMPDEST PUSH1 0x1 DUP1 PUSH1 0x2 DUP2 GT ISZERO PUSH2 0x80A JUMPI PUSH2 0x809 PUSH2 0x11EB JUMP JUMPDEST JUMPDEST PUSH1 0x5 PUSH1 0x1 SWAP1 SLOAD SWAP1 PUSH2 0x100 EXP SWAP1 DIV PUSH1 0xFF AND PUSH1 0x2 DUP2 GT ISZERO PUSH2 0x82C JUMPI PUSH2 0x82B PUSH2 0x11EB JUMP JUMPDEST JUMPDEST EQ PUSH2 0x86C JUMPI PUSH1 0x40 MLOAD PUSH32 0x8C379A000000000000000000000000000000000000000000000000000000000 DUP2 MSTORE PUSH1 0x4 ADD PUSH2 0x863 SWAP1 PUSH2 0x1277 JUMP JUMPDEST PUSH1 0x40 MLOAD DUP1 SWAP2 SUB SWAP1 REVERT JUMPDEST PUSH1 0x1 PUSH1 0x5 PUSH1 0x1 SWAP1 SLOAD SWAP1 PUSH2 0x100 EXP SWAP1 DIV PUSH1 0xFF AND PUSH1 0x2 DUP2 GT ISZERO PUSH2 0x890 JUMPI PUSH2 0x88F PUSH2 0x11EB JUMP JUMPDEST JUMPDEST PUSH2 0x89A SWAP2 SWAP1 PUSH2 0x12D0 JUMP JUMPDEST PUSH1 0x2 DUP2 GT ISZERO PUSH2 0x8AC JUMPI PUSH2 0x8AB PUSH2 0x11EB JUMP JUMPDEST JUMPDEST PUSH1 0x5 PUSH1 0x1 PUSH2 0x100 EXP DUP2 SLOAD DUP2 PUSH1 0xFF MUL NOT AND SWAP1 DUP4 PUSH1 0x2 DUP2 GT ISZERO PUSH2 0x8D0 JUMPI PUSH2 0x8CF PUSH2 0x11EB JUMP JUMPDEST JUMPDEST MUL OR SWAP1 SSTORE POP POP JUMP JUMPDEST PUSH1 0x1 DUP1 PUSH1 0x2 DUP2 GT ISZERO PUSH2 0x8ED JUMPI PUSH2 0x8EC PUSH2 0x11EB JUMP JUMPDEST JUMPDEST PUSH1 0x5 PUSH1 0x1 SWAP1 SLOAD SWAP1 PUSH2 0x100 EXP SWAP1 DIV PUSH1 0xFF AND PUSH1 0x2 DUP2 GT ISZERO PUSH2 0x90F JUMPI PUSH2 0x90E PUSH2 0x11EB JUMP JUMPDEST JUMPDEST EQ PUSH2 0x94F JUMPI PUSH1 0x40 MLOAD PUSH32 0x8C379A000000000000000000000000000000000000000000000000000000000 DUP2 MSTORE PUSH1 0x4 ADD PUSH2 0x946 SWAP1 PUSH2 0x1277 JUMP JUMPDEST PUSH1 0x40 MLOAD DUP1 SWAP2 SUB SWAP1 REVERT JUMPDEST PUSH2 0x958 DUP4 PUSH2 0xD47 JUMP JUMPDEST DUP3 PUSH1 0x1 PUSH1 0x0 CALLER PUSH20 0xFFFFFFFFFFFFFFFFFFFFFFFFFFFFFFFFFFFFFFFF AND PUSH20 0xFFFFFFFFFFFFFFFFFFFFFFFFFFFFFFFFFFFFFFFF AND DUP2 MSTORE PUSH1 0x20 ADD SWAP1 DUP2 MSTORE PUSH1 0x20 ADD PUSH1 0x0 KECCAK256 PUSH1 0x0 ADD SLOAD PUSH1 0x0 PUSH1 0x2 DUP2 GT ISZERO PUSH2 0x9B0 JUMPI PUSH2 0x9AF PUSH2 0x11EB JUMP JUMPDEST JUMPDEST DUP4 PUSH1 0x2 DUP2 GT ISZERO PUSH2 0x9C3 JUMPI PUSH2 0x9C2 PUSH2 0x11EB JUMP JUMPDEST JUMPDEST SUB PUSH2 0xA03 JUMPI PUSH1 0x40 MLOAD PUSH32 0x8C379A000000000000000000000000000000000000000000000000000000000 DUP2 MSTORE PUSH1 0x4 ADD PUSH2 0x9FA SWAP1 PUSH2 0x1462 JUMP JUMPDEST PUSH1 0x40 MLOAD DUP1 SWAP2 SUB SWAP1 REVERT JUMPDEST DUP1 PUSH1 0x1 PUSH1 0x2 DUP2 GT ISZERO PUSH2 0xA18 JUMPI PUSH2 0xA17 PUSH2 0x11EB JUMP JUMPDEST JUMPDEST DUP5 PUSH1 0x2 DUP2 GT ISZERO PUSH2 0xA2B JUMPI PUSH2 0xA2A PUSH2 0x11EB JUMP JUMPDEST JUMPDEST EQ PUSH2 0xA6B JUMPI PUSH1 0x40 MLOAD DUP1 PUSH1 0x40 ADD PUSH1 0x40 MSTORE DUP1 PUSH1 0x4 DUP2 MSTORE PUSH1 0x20 ADD PUSH32 0x5461696C00000000000000000000000000000000000000000000000000000000 DUP2 MSTORE POP PUSH2 0xAA2 JUMP JUMPDEST PUSH1 0x40 MLOAD DUP1 PUSH1 0x40 ADD PUSH1 0x40 MSTORE DUP1 PUSH1 0x4 DUP2 MSTORE PUSH1 0x20 ADD PUSH32 0x4865616400000000000000000000000000000000000000000000000000000000 DUP2 MSTORE POP JUMPDEST DUP4 PUSH1 0x40 MLOAD PUSH1 0x20 ADD PUSH2 0xAB4 SWAP3 SWAP2 SWAP1 PUSH2 0x14F3 JUMP JUMPDEST PUSH1 0x40 MLOAD PUSH1 0x20 DUP2 DUP4 SUB SUB DUP2 MSTORE SWAP1 PUSH1 0x40 MSTORE DUP1 MLOAD SWAP1 PUSH1 0x20 ADD KECCAK256 EQ PUSH2 0xB0A JUMPI PUSH1 0x40 MLOAD PUSH32 0x8C379A000000000000000000000000000000000000000000000000000000000 DUP2 MSTORE PUSH1 0x4 ADD PUSH2 0xB01 SWAP1 PUSH2 0x1563 JUMP JUMPDEST PUSH1 0x40 MLOAD DUP1 SWAP2 SUB SWAP1 REVERT JUMPDEST PUSH1 0x0 PUSH2 0xB15 DUP8 PUSH2 0xD47 JUMP JUMPDEST SWAP1 POP DUP1 PUSH1 0x1 PUSH1 0x0 CALLER PUSH20 0xFFFFFFFFFFFFFFFFFFFFFFFFFFFFFFFFFFFFFFFF AND PUSH20 0xFFFFFFFFFFFFFFFFFFFFFFFFFFFFFFFFFFFFFFFF AND DUP2 MSTORE PUSH1 0x20 ADD SWAP1 DUP2 MSTORE PUSH1 0x20 ADD PUSH1 0x0 KECCAK256 PUSH1 0x2 ADD PUSH1 0x0 PUSH2 0x100 EXP DUP2 SLOAD DUP2 PUSH1 0xFF MUL NOT AND SWAP1 DUP4 PUSH1 0x2 DUP2 GT ISZERO PUSH2 0xB7C JUMPI PUSH2 0xB7B PUSH2 0x11EB JUMP JUMPDEST JUMPDEST MUL OR SWAP1 SSTORE POP PUSH1 0x5 PUSH1 0x0 SWAP1 SLOAD SWAP1 PUSH2 0x100 EXP SWAP1 DIV PUSH1 0xFF AND PUSH1 0x2 DUP2 GT ISZERO PUSH2 0xBA3 JUMPI PUSH2 0xBA2 PUSH2 0x11EB JUMP JUMPDEST JUMPDEST DUP2 PUSH1 0x2 DUP2 GT ISZERO PUSH2 0xBB6 JUMPI PUSH2 0xBB5 PUSH2 0x11EB JUMP JUMPDEST JUMPDEST SUB PUSH2 0xC31 JUMPI PUSH1 0x1 PUSH1 0x0 CALLER PUSH20 0xFFFFFFFFFFFFFFFFFFFFFFFFFFFFFFFFFFFFFFFF AND PUSH20 0xFFFFFFFFFFFFFFFFFFFFFFFFFFFFFFFFFFFFFFFF AND DUP2 MSTORE PUSH1 0x20 ADD SWAP1 DUP2 MSTORE PUSH1 0x20 ADD PUSH1 0x0 KECCAK256 PUSH1 0x1 ADD SLOAD PUSH1 0x2 PUSH1 0x0 DUP3 DUP3 SLOAD PUSH2 0xC0F SWAP2 SWAP1 PUSH2 0x15DE JUMP JUMPDEST SWAP3 POP POP DUP2 SWAP1 SSTORE POP PUSH1 0x1 PUSH1 0x3 PUSH1 0x0 DUP3 DUP3 SLOAD PUSH2 0xC29 SWAP2 SWAP1 PUSH2 0x12D0 JUMP JUMPDEST SWAP3 POP POP DUP2 SWAP1 SSTORE POP JUMPDEST POP POP POP POP POP POP POP JUMP JUMPDEST PUSH2 0xC42 PUSH2 0xCC0 JUMP JUMPDEST PUSH1 0x0 PUSH20 0xFFFFFFFFFFFFFFFFFFFFFFFFFFFFFFFFFFFFFFFF AND DUP2 PUSH20 0xFFFFFFFFFFFFFFFFFFFFFFFFFFFFFFFFFFFFFFFF AND SUB PUSH2 0xCB4 JUMPI PUSH1 0x0 PUSH1 0x40 MLOAD PUSH32 0x1E4FBDF700000000000000000000000000000000000000000000000000000000 DUP2 MSTORE PUSH1 0x4 ADD PUSH2 0xCAB SWAP2 SWAP1 PUSH2 0x1177 JUMP JUMPDEST PUSH1 0x40 MLOAD DUP1 SWAP2 SUB SWAP1 REVERT JUMPDEST PUSH2 0xCBD DUP2 PUSH2 0xE35 JUMP JUMPDEST POP JUMP JUMPDEST PUSH2 0xCC8 PUSH2 0xEF9 JUMP JUMPDEST PUSH20 0xFFFFFFFFFFFFFFFFFFFFFFFFFFFFFFFFFFFFFFFF AND PUSH2 0xCE6 PUSH2 0x7C4 JUMP JUMPDEST PUSH20 0xFFFFFFFFFFFFFFFFFFFFFFFFFFFFFFFFFFFFFFFF AND EQ PUSH2 0xD45 JUMPI PUSH2 0xD09 PUSH2 0xEF9 JUMP JUMPDEST PUSH1 0x40 MLOAD PUSH32 0x118CDAA700000000000000000000000000000000000000000000000000000000 DUP2 MSTORE PUSH1 0x4 ADD PUSH2 0xD3C SWAP2 SWAP1 PUSH2 0x1177 JUMP JUMPDEST PUSH1 0x40 MLOAD DUP1 SWAP2 SUB SWAP1 REVERT JUMPDEST JUMP JUMPDEST PUSH1 0x0 PUSH32 0x4865616400000000000000000000000000000000000000000000000000000000 DUP3 PUSH1 0x40 MLOAD PUSH1 0x20 ADD PUSH2 0xD7B SWAP2 SWAP1 PUSH2 0x1612 JUMP JUMPDEST PUSH1 0x40 MLOAD PUSH1 0x20 DUP2 DUP4 SUB SUB DUP2 MSTORE SWAP1 PUSH1 0x40 MSTORE DUP1 MLOAD SWAP1 PUSH1 0x20 ADD KECCAK256 SUB PUSH2 0xD9F JUMPI PUSH1 0x1 SWAP1 POP PUSH2 0xE30 JUMP JUMPDEST PUSH32 0x5461696C00000000000000000000000000000000000000000000000000000000 DUP3 PUSH1 0x40 MLOAD PUSH1 0x20 ADD PUSH2 0xDD1 SWAP2 SWAP1 PUSH2 0x1612 JUMP JUMPDEST PUSH1 0x40 MLOAD PUSH1 0x20 DUP2 DUP4 SUB SUB DUP2 MSTORE SWAP1 PUSH1 0x40 MSTORE DUP1 MLOAD SWAP1 PUSH1 0x20 ADD KECCAK256 SUB PUSH2 0xDF5 JUMPI PUSH1 0x2 SWAP1 POP PUSH2 0xE30 JUMP JUMPDEST PUSH1 0x40 MLOAD PUSH32 0x8C379A000000000000000000000000000000000000000000000000000000000 DUP2 MSTORE PUSH1 0x4 ADD PUSH2 0xE27 SWAP1 PUSH2 0x1675 JUMP JUMPDEST PUSH1 0x40 MLOAD DUP1 SWAP2 SUB SWAP1 REVERT JUMPDEST SWAP2 SWAP1 POP JUMP JUMPDEST PUSH1 0x0 DUP1 PUSH1 0x0 SWAP1 SLOAD SWAP1 PUSH2 0x100 EXP SWAP1 DIV PUSH20 0xFFFFFFFFFFFFFFFFFFFFFFFFFFFFFFFFFFFFFFFF AND SWAP1 POP DUP2 PUSH1 0x0 DUP1 PUSH2 0x100 EXP DUP2 SLOAD DUP2 PUSH20 0xFFFFFFFFFFFFFFFFFFFFFFFFFFFFFFFFFFFFFFFF MUL NOT AND SWAP1 DUP4 PUSH20 0xFFFFFFFFFFFFFFFFFFFFFFFFFFFFFFFFFFFFFFFF AND MUL OR SWAP1 SSTORE POP DUP2 PUSH20 0xFFFFFFFFFFFFFFFFFFFFFFFFFFFFFFFFFFFFFFFF AND DUP2 PUSH20 0xFFFFFFFFFFFFFFFFFFFFFFFFFFFFFFFFFFFFFFFF AND PUSH32 0x8BE0079C531659141344CD1FD0A4F28419497F9722A3DAAFE3B4186F6B6457E0 PUSH1 0x40 MLOAD PUSH1 0x40 MLOAD DUP1 SWAP2 SUB SWAP1 LOG3 POP POP JUMP JUMPDEST PUSH1 0x0 CALLER SWAP1 POP SWAP1 JUMP JUMPDEST PUSH1 0x0 PUSH1 0x40 MLOAD SWAP1 POP SWAP1 JUMP JUMPDEST PUSH1 0x0 DUP1 REVERT JUMPDEST PUSH1 0x0 DUP1 REVERT JUMPDEST PUSH1 0x0 DUP2 SWAP1 POP SWAP2 SWAP1 POP JUMP JUMPDEST PUSH2 0xF28 DUP2 PUSH2 0xF15 JUMP JUMPDEST DUP2 EQ PUSH2 0xF33 JUMPI PUSH1 0x0 DUP1 REVERT JUMPDEST POP JUMP JUMPDEST PUSH1 0x0 DUP2 CALLDATALOAD SWAP1 POP PUSH2 0xF45 DUP2 PUSH2 0xF1F JUMP JUMPDEST SWAP3 SWAP2 POP POP JUMP JUMPDEST PUSH1 0x0 PUSH1 0x20 DUP3 DUP5 SUB SLT ISZERO PUSH2 0xF61 JUMPI PUSH2 0xF60 PUSH2 0xF0B JUMP JUMPDEST JUMPDEST PUSH1 0x0 PUSH2 0xF6F DUP5 DUP3 DUP6 ADD PUSH2 0xF36 JUMP JUMPDEST SWAP2 POP POP SWAP3 SWAP2 POP POP JUMP JUMPDEST PUSH1 0x0 DUP1 REVERT JUMPDEST PUSH1 0x0 DUP1 REVERT JUMPDEST PUSH1 0x0 PUSH1 0x1F NOT PUSH1 0x1F DUP4 ADD AND SWAP1 POP SWAP2 SWAP1 POP JUMP JUMPDEST PUSH32 0x4E487B7100000000000000000000000000000000000000000000000000000000 PUSH1 0x0 MSTORE PUSH1 0x41 PUSH1 0x4 MSTORE PUSH1 0x24 PUSH1 0x0 REVERT JUMPDEST PUSH2 0xFCB DUP3 PUSH2 0xF82 JUMP JUMPDEST DUP2 ADD DUP2 DUP2 LT PUSH8 0xFFFFFFFFFFFFFFFF DUP3 GT OR ISZERO PUSH2 0xFEA JUMPI PUSH2 0xFE9 PUSH2 0xF93 JUMP JUMPDEST JUMPDEST DUP1 PUSH1 0x40 MSTORE POP POP POP JUMP JUMPDEST PUSH1 0x0 PUSH2 0xFFD PUSH2 0xF01 JUMP JUMPDEST SWAP1 POP PUSH2 0x1009 DUP3 DUP3 PUSH2 0xFC2 JUMP JUMPDEST SWAP2 SWAP1 POP JUMP JUMPDEST PUSH1 0x0 PUSH8 0xFFFFFFFFFFFFFFFF DUP3 GT ISZERO PUSH2 0x1029 JUMPI PUSH2 0x1028 PUSH2 0xF93 JUMP JUMPDEST JUMPDEST PUSH2 0x1032 DUP3 PUSH2 0xF82 JUMP JUMPDEST SWAP1 POP PUSH1 0x20 DUP2 ADD SWAP1 POP SWAP2 SWAP1 POP JUMP JUMPDEST DUP3 DUP2 DUP4 CALLDATACOPY PUSH1 0x0 DUP4 DUP4 ADD MSTORE POP POP POP JUMP JUMPDEST PUSH1 0x0 PUSH2 0x1061 PUSH2 0x105C DUP5 PUSH2 0x100E JUMP JUMPDEST PUSH2 0xFF3 JUMP JUMPDEST SWAP1 POP DUP3 DUP2 MSTORE PUSH1 0x20 DUP2 ADD DUP5 DUP5 DUP5 ADD GT ISZERO PUSH2 0x107D JUMPI PUSH2 0x107C PUSH2 0xF7D JUMP JUMPDEST JUMPDEST PUSH2 0x1088 DUP5 DUP3 DUP6 PUSH2 0x103F JUMP JUMPDEST POP SWAP4 SWAP3 POP POP POP JUMP JUMPDEST PUSH1 0x0 DUP3 PUSH1 0x1F DUP4 ADD SLT PUSH2 0x10A5 JUMPI PUSH2 0x10A4 PUSH2 0xF78 JUMP JUMPDEST JUMPDEST DUP2 CALLDATALOAD PUSH2 0x10B5 DUP5 DUP3 PUSH1 0x20 DUP7 ADD PUSH2 0x104E JUMP JUMPDEST SWAP2 POP POP SWAP3 SWAP2 POP POP JUMP JUMPDEST PUSH1 0x0 DUP1 PUSH1 0x40 DUP4 DUP6 SUB SLT ISZERO PUSH2 0x10D5 JUMPI PUSH2 0x10D4 PUSH2 0xF0B JUMP JUMPDEST JUMPDEST PUSH1 0x0 DUP4 ADD CALLDATALOAD PUSH8 0xFFFFFFFFFFFFFFFF DUP2 GT ISZERO PUSH2 0x10F3 JUMPI PUSH2 0x10F2 PUSH2 0xF10 JUMP JUMPDEST JUMPDEST PUSH2 0x10FF DUP6 DUP3 DUP7 ADD PUSH2 0x1090 JUMP JUMPDEST SWAP3 POP POP PUSH1 0x20 DUP4 ADD CALLDATALOAD PUSH8 0xFFFFFFFFFFFFFFFF DUP2 GT ISZERO PUSH2 0x1120 JUMPI PUSH2 0x111F PUSH2 0xF10 JUMP JUMPDEST JUMPDEST PUSH2 0x112C DUP6 DUP3 DUP7 ADD PUSH2 0x1090 JUMP JUMPDEST SWAP2 POP POP SWAP3 POP SWAP3 SWAP1 POP JUMP JUMPDEST PUSH1 0x0 PUSH20 0xFFFFFFFFFFFFFFFFFFFFFFFFFFFFFFFFFFFFFFFF DUP3 AND SWAP1 POP SWAP2 SWAP1 POP JUMP JUMPDEST PUSH1 0x0 PUSH2 0x1161 DUP3 PUSH2 0x1136 JUMP JUMPDEST SWAP1 POP SWAP2 SWAP1 POP JUMP JUMPDEST PUSH2 0x1171 DUP2 PUSH2 0x1156 JUMP JUMPDEST DUP3 MSTORE POP POP JUMP JUMPDEST PUSH1 0x0 PUSH1 0x20 DUP3 ADD SWAP1 POP PUSH2 0x118C PUSH1 0x0 DUP4 ADD DUP5 PUSH2 0x1168 JUMP JUMPDEST SWAP3 SWAP2 POP POP JUMP JUMPDEST PUSH2 0x119B DUP2 PUSH2 0x1156 JUMP JUMPDEST DUP2 EQ PUSH2 0x11A6 JUMPI PUSH1 0x0 DUP1 REVERT JUMPDEST POP JUMP JUMPDEST PUSH1 0x0 DUP2 CALLDATALOAD SWAP1 POP PUSH2 0x11B8 DUP2 PUSH2 0x1192 JUMP JUMPDEST SWAP3 SWAP2 POP POP JUMP JUMPDEST PUSH1 0x0 PUSH1 0x20 DUP3 DUP5 SUB SLT ISZERO PUSH2 0x11D4 JUMPI PUSH2 0x11D3 PUSH2 0xF0B JUMP JUMPDEST JUMPDEST PUSH1 0x0 PUSH2 0x11E2 DUP5 DUP3 DUP6 ADD PUSH2 0x11A9 JUMP JUMPDEST SWAP2 POP POP SWAP3 SWAP2 POP POP JUMP JUMPDEST PUSH32 0x4E487B7100000000000000000000000000000000000000000000000000000000 PUSH1 0x0 MSTORE PUSH1 0x21 PUSH1 0x4 MSTORE PUSH1 0x24 PUSH1 0x0 REVERT JUMPDEST PUSH1 0x0 DUP3 DUP3 MSTORE PUSH1 0x20 DUP3 ADD SWAP1 POP SWAP3 SWAP2 POP POP JUMP JUMPDEST PUSH32 0x57726F6E67207374616765000000000000000000000000000000000000000000 PUSH1 0x0 DUP3 ADD MSTORE POP JUMP JUMPDEST PUSH1 0x0 PUSH2 0x1261 PUSH1 0xB DUP4 PUSH2 0x121A JUMP JUMPDEST SWAP2 POP PUSH2 0x126C DUP3 PUSH2 0x122B JUMP JUMPDEST PUSH1 0x20 DUP3 ADD SWAP1 POP SWAP2 SWAP1 POP JUMP JUMPDEST PUSH1 0x0 PUSH1 0x20 DUP3 ADD SWAP1 POP DUP2 DUP2 SUB PUSH1 0x0 DUP4 ADD MSTORE PUSH2 0x1290 DUP2 PUSH2 0x1254 JUMP JUMPDEST SWAP1 POP SWAP2 SWAP1 POP JUMP JUMPDEST PUSH1 0x0 DUP2 SWAP1 POP SWAP2 SWAP1 POP JUMP JUMPDEST PUSH32 0x4E487B7100000000000000000000000000000000000000000000000000000000 PUSH1 0x0 MSTORE PUSH1 0x11 PUSH1 0x4 MSTORE PUSH1 0x24 PUSH1 0x0 REVERT JUMPDEST PUSH1 0x0 PUSH2 0x12DB DUP3 PUSH2 0x1297 JUMP JUMPDEST SWAP2 POP PUSH2 0x12E6 DUP4 PUSH2 0x1297 JUMP JUMPDEST SWAP3 POP DUP3 DUP3 ADD SWAP1 POP DUP1 DUP3 GT ISZERO PUSH2 0x12FE JUMPI PUSH2 0x12FD PUSH2 0x12A1 JUMP JUMPDEST JUMPDEST SWAP3 SWAP2 POP POP JUMP JUMPDEST PUSH32 0x596F7520617265206C6F73696E67207468652062657400000000000000000000 PUSH1 0x0 DUP3 ADD MSTORE POP JUMP JUMPDEST PUSH1 0x0 PUSH2 0x133A PUSH1 0x16 DUP4 PUSH2 0x121A JUMP JUMPDEST SWAP2 POP PUSH2 0x1345 DUP3 PUSH2 0x1304 JUMP JUMPDEST PUSH1 0x20 DUP3 ADD SWAP1 POP SWAP2 SWAP1 POP JUMP JUMPDEST PUSH1 0x0 PUSH1 0x20 DUP3 ADD SWAP1 POP DUP2 DUP2 SUB PUSH1 0x0 DUP4 ADD MSTORE PUSH2 0x1369 DUP2 PUSH2 0x132D JUMP JUMPDEST SWAP1 POP SWAP2 SWAP1 POP JUMP JUMPDEST PUSH32 0x4E487B7100000000000000000000000000000000000000000000000000000000 PUSH1 0x0 MSTORE PUSH1 0x12 PUSH1 0x4 MSTORE PUSH1 0x24 PUSH1 0x0 REVERT JUMPDEST PUSH1 0x0 PUSH2 0x13AA DUP3 PUSH2 0x1297 JUMP JUMPDEST SWAP2 POP PUSH2 0x13B5 DUP4 PUSH2 0x1297 JUMP JUMPDEST SWAP3 POP DUP3 PUSH2 0x13C5 JUMPI PUSH2 0x13C4 PUSH2 0x1370 JUMP JUMPDEST JUMPDEST DUP3 DUP3 DIV SWAP1 POP SWAP3 SWAP2 POP POP JUMP JUMPDEST PUSH1 0x0 DUP2 SWAP1 POP SWAP3 SWAP2 POP POP JUMP JUMPDEST POP JUMP JUMPDEST PUSH1 0x0 PUSH2 0x13EB PUSH1 0x0 DUP4 PUSH2 0x13D0 JUMP JUMPDEST SWAP2 POP PUSH2 0x13F6 DUP3 PUSH2 0x13DB JUMP JUMPDEST PUSH1 0x0 DUP3 ADD SWAP1 POP SWAP2 SWAP1 POP JUMP JUMPDEST PUSH1 0x0 PUSH2 0x140C DUP3 PUSH2 0x13DE JUMP JUMPDEST SWAP2 POP DUP2 SWAP1 POP SWAP2 SWAP1 POP JUMP JUMPDEST PUSH32 0x43686F696365206D757374206265207365740000000000000000000000000000 PUSH1 0x0 DUP3 ADD MSTORE POP JUMP JUMPDEST PUSH1 0x0 PUSH2 0x144C PUSH1 0x12 DUP4 PUSH2 0x121A JUMP JUMPDEST SWAP2 POP PUSH2 0x1457 DUP3 PUSH2 0x1416 JUMP JUMPDEST PUSH1 0x20 DUP3 ADD SWAP1 POP SWAP2 SWAP1 POP JUMP JUMPDEST PUSH1 0x0 PUSH1 0x20 DUP3 ADD SWAP1 POP DUP2 DUP2 SUB PUSH1 0x0 DUP4 ADD MSTORE PUSH2 0x147B DUP2 PUSH2 0x143F JUMP JUMPDEST SWAP1 POP SWAP2 SWAP1 POP JUMP JUMPDEST PUSH1 0x0 DUP2 MLOAD SWAP1 POP SWAP2 SWAP1 POP JUMP JUMPDEST PUSH1 0x0 DUP2 SWAP1 POP SWAP3 SWAP2 POP POP JUMP JUMPDEST PUSH1 0x0 JUMPDEST DUP4 DUP2 LT ISZERO PUSH2 0x14B6 JUMPI DUP1 DUP3 ADD MLOAD DUP2 DUP5 ADD MSTORE PUSH1 0x20 DUP2 ADD SWAP1 POP PUSH2 0x149B JUMP JUMPDEST PUSH1 0x0 DUP5 DUP5 ADD MSTORE POP POP POP POP JUMP JUMPDEST PUSH1 0x0 PUSH2 0x14CD DUP3 PUSH2 0x1482 JUMP JUMPDEST PUSH2 0x14D7 DUP2 DUP6 PUSH2 0x148D JUMP JUMPDEST SWAP4 POP PUSH2 0x14E7 DUP2 DUP6 PUSH1 0x20 DUP7 ADD PUSH2 0x1498 JUMP JUMPDEST DUP1 DUP5 ADD SWAP2 POP POP SWAP3 SWAP2 POP POP JUMP JUMPDEST PUSH1 0x0 PUSH2 0x14FF DUP3 DUP6 PUSH2 0x14C2 JUMP JUMPDEST SWAP2 POP PUSH2 0x150B DUP3 DUP5 PUSH2 0x14C2 JUMP JUMPDEST SWAP2 POP DUP2 SWAP1 POP SWAP4 SWAP3 POP POP POP JUMP JUMPDEST PUSH32 0x57726F6E67206861736800000000000000000000000000000000000000000000 PUSH1 0x0 DUP3 ADD MSTORE POP JUMP JUMPDEST PUSH1 0x0 PUSH2 0x154D PUSH1 0xA DUP4 PUSH2 0x121A JUMP JUMPDEST SWAP2 POP PUSH2 0x1558 DUP3 PUSH2 0x1517 JUMP JUMPDEST PUSH1 0x20 DUP3 ADD SWAP1 POP SWAP2 SWAP1 POP JUMP JUMPDEST PUSH1 0x0 PUSH1 0x20 DUP3 ADD SWAP1 POP DUP2 DUP2 SUB PUSH1 0x0 DUP4 ADD MSTORE PUSH2 0x157C DUP2 PUSH2 0x1540 JUMP JUMPDEST SWAP1 POP SWAP2 SWAP1 POP JUMP JUMPDEST PUSH1 0x0 PUSH2 0x158E DUP3 PUSH2 0x1482 JUMP JUMPDEST PUSH2 0x1598 DUP2 DUP6 PUSH2 0x121A JUMP JUMPDEST SWAP4 POP PUSH2 0x15A8 DUP2 DUP6 PUSH1 0x20 DUP7 ADD PUSH2 0x1498 JUMP JUMPDEST PUSH2 0x15B1 DUP2 PUSH2 0xF82 JUMP JUMPDEST DUP5 ADD SWAP2 POP POP SWAP3 SWAP2 POP POP JUMP JUMPDEST PUSH1 0x0 PUSH1 0x20 DUP3 ADD SWAP1 POP DUP2 DUP2 SUB PUSH1 0x0 DUP4 ADD MSTORE PUSH2 0x15D6 DUP2 DUP5 PUSH2 0x1583 JUMP JUMPDEST SWAP1 POP SWAP3 SWAP2 POP POP JUMP JUMPDEST PUSH1 0x0 PUSH2 0x15E9 DUP3 PUSH2 0x1297 JUMP JUMPDEST SWAP2 POP PUSH2 0x15F4 DUP4 PUSH2 0x1297 JUMP JUMPDEST SWAP3 POP DUP3 DUP3 SUB SWAP1 POP DUP2 DUP2 GT ISZERO PUSH2 0x160C JUMPI PUSH2 0x160B PUSH2 0x12A1 JUMP JUMPDEST JUMPDEST SWAP3 SWAP2 POP POP JUMP JUMPDEST PUSH1 0x0 PUSH2 0x161E DUP3 DUP5 PUSH2 0x14C2 JUMP JUMPDEST SWAP2 POP DUP2 SWAP1 POP SWAP3 SWAP2 POP POP JUMP JUMPDEST PUSH32 0x43616E6E6F742064657465726D696E652063686F696365000000000000000000 PUSH1 0x0 DUP3 ADD MSTORE POP JUMP JUMPDEST PUSH1 0x0 PUSH2 0x165F PUSH1 0x17 DUP4 PUSH2 0x121A JUMP JUMPDEST SWAP2 POP PUSH2 0x166A DUP3 PUSH2 0x1629 JUMP JUMPDEST PUSH1 0x20 DUP3 ADD SWAP1 POP SWAP2 SWAP1 POP JUMP JUMPDEST PUSH1 0x0 PUSH1 0x20 DUP3 ADD SWAP1 POP DUP2 DUP2 SUB PUSH1 0x0 DUP4 ADD MSTORE PUSH2 0x168E DUP2 PUSH2 0x1652 JUMP JUMPDEST SWAP1 POP SWAP2 SWAP1 POP JUMP INVALID LOG2 PUSH5 0x6970667358 0x22 SLT KECCAK256 SMOD CALLER LOG3 MSTORE BYTE PUSH16 0x66A372B22CCCB205469997FF0A562597 EXTCODECOPY PUSH10 0x7418EA6F2C94CD116473 PUSH16 0x6C634300081800330000000000000000 "
        },
        "methodIdentifiers": {
          "closeReveal()": "ca48fd42",
          "owner()": "8da5cb5b",
          "placeBet(bytes32)": "042b5fed",
          "renounceOwnership()": "715018a6",
          "revealBet(string,string)": "ecaf6978",
          "revealChoice(string,string)": "5441effc",
          "transferOwnership(address)": "f2fde38b",
          "withdrawBets()": "4e4ff079"
        }
      }
    }
  }
}